{
  "_format": "hh-sol-artifact-1",
  "contractName": "MyEpicNFT",
  "sourceName": "contracts/MyEpicNFT.sol",
  "abi": [
    {
      "inputs": [],
      "stateMutability": "nonpayable",
      "type": "constructor"
    },
    {
      "anonymous": false,
      "inputs": [
        {
          "indexed": true,
          "internalType": "address",
          "name": "owner",
          "type": "address"
        },
        {
          "indexed": true,
          "internalType": "address",
          "name": "approved",
          "type": "address"
        },
        {
          "indexed": true,
          "internalType": "uint256",
          "name": "tokenId",
          "type": "uint256"
        }
      ],
      "name": "Approval",
      "type": "event"
    },
    {
      "anonymous": false,
      "inputs": [
        {
          "indexed": true,
          "internalType": "address",
          "name": "owner",
          "type": "address"
        },
        {
          "indexed": true,
          "internalType": "address",
          "name": "operator",
          "type": "address"
        },
        {
          "indexed": false,
          "internalType": "bool",
          "name": "approved",
          "type": "bool"
        }
      ],
      "name": "ApprovalForAll",
      "type": "event"
    },
    {
      "anonymous": false,
      "inputs": [
        {
          "indexed": false,
          "internalType": "address",
          "name": "sender",
          "type": "address"
        },
        {
          "indexed": false,
          "internalType": "uint256",
          "name": "tokeId",
          "type": "uint256"
        }
      ],
      "name": "NewEpicNFTMinted",
      "type": "event"
    },
    {
      "anonymous": false,
      "inputs": [
        {
          "indexed": true,
          "internalType": "address",
          "name": "from",
          "type": "address"
        },
        {
          "indexed": true,
          "internalType": "address",
          "name": "to",
          "type": "address"
        },
        {
          "indexed": true,
          "internalType": "uint256",
          "name": "tokenId",
          "type": "uint256"
        }
      ],
      "name": "Transfer",
      "type": "event"
    },
    {
      "inputs": [
        {
          "internalType": "address",
          "name": "to",
          "type": "address"
        },
        {
          "internalType": "uint256",
          "name": "tokenId",
          "type": "uint256"
        }
      ],
      "name": "approve",
      "outputs": [],
      "stateMutability": "nonpayable",
      "type": "function"
    },
    {
      "inputs": [
        {
          "internalType": "address",
          "name": "owner",
          "type": "address"
        }
      ],
      "name": "balanceOf",
      "outputs": [
        {
          "internalType": "uint256",
          "name": "",
          "type": "uint256"
        }
      ],
      "stateMutability": "view",
      "type": "function"
    },
    {
      "inputs": [
        {
          "internalType": "uint256",
          "name": "tokenId",
          "type": "uint256"
        }
      ],
      "name": "getApproved",
      "outputs": [
        {
          "internalType": "address",
          "name": "",
          "type": "address"
        }
      ],
      "stateMutability": "view",
      "type": "function"
    },
    {
      "inputs": [],
      "name": "getTotalNFTsMintedSoFar",
      "outputs": [
        {
          "internalType": "uint256",
          "name": "",
          "type": "uint256"
        }
      ],
      "stateMutability": "view",
      "type": "function"
    },
    {
      "inputs": [
        {
          "internalType": "address",
          "name": "owner",
          "type": "address"
        },
        {
          "internalType": "address",
          "name": "operator",
          "type": "address"
        }
      ],
      "name": "isApprovedForAll",
      "outputs": [
        {
          "internalType": "bool",
          "name": "",
          "type": "bool"
        }
      ],
      "stateMutability": "view",
      "type": "function"
    },
    {
      "inputs": [],
      "name": "makeAnEpicNFT",
      "outputs": [],
      "stateMutability": "nonpayable",
      "type": "function"
    },
    {
      "inputs": [],
      "name": "name",
      "outputs": [
        {
          "internalType": "string",
          "name": "",
          "type": "string"
        }
      ],
      "stateMutability": "view",
      "type": "function"
    },
    {
      "inputs": [
        {
          "internalType": "uint256",
          "name": "tokenId",
          "type": "uint256"
        }
      ],
      "name": "ownerOf",
      "outputs": [
        {
          "internalType": "address",
          "name": "",
          "type": "address"
        }
      ],
      "stateMutability": "view",
      "type": "function"
    },
    {
      "inputs": [
        {
          "internalType": "uint256",
          "name": "tokenId",
          "type": "uint256"
        }
      ],
      "name": "pickRandomColor",
      "outputs": [
        {
          "internalType": "string",
          "name": "",
          "type": "string"
        }
      ],
      "stateMutability": "view",
      "type": "function"
    },
    {
      "inputs": [
        {
          "internalType": "uint256",
          "name": "tokenId",
          "type": "uint256"
        }
      ],
      "name": "pickRandormFirstWord",
      "outputs": [
        {
          "internalType": "string",
          "name": "",
          "type": "string"
        }
      ],
      "stateMutability": "view",
      "type": "function"
    },
    {
      "inputs": [
        {
          "internalType": "uint256",
          "name": "tokenId",
          "type": "uint256"
        }
      ],
      "name": "pickRandormSecondWord",
      "outputs": [
        {
          "internalType": "string",
          "name": "",
          "type": "string"
        }
      ],
      "stateMutability": "view",
      "type": "function"
    },
    {
      "inputs": [
        {
          "internalType": "uint256",
          "name": "tokenId",
          "type": "uint256"
        }
      ],
      "name": "pickRandormThirdWord",
      "outputs": [
        {
          "internalType": "string",
          "name": "",
          "type": "string"
        }
      ],
      "stateMutability": "view",
      "type": "function"
    },
    {
      "inputs": [
        {
          "internalType": "address",
          "name": "from",
          "type": "address"
        },
        {
          "internalType": "address",
          "name": "to",
          "type": "address"
        },
        {
          "internalType": "uint256",
          "name": "tokenId",
          "type": "uint256"
        }
      ],
      "name": "safeTransferFrom",
      "outputs": [],
      "stateMutability": "nonpayable",
      "type": "function"
    },
    {
      "inputs": [
        {
          "internalType": "address",
          "name": "from",
          "type": "address"
        },
        {
          "internalType": "address",
          "name": "to",
          "type": "address"
        },
        {
          "internalType": "uint256",
          "name": "tokenId",
          "type": "uint256"
        },
        {
          "internalType": "bytes",
          "name": "_data",
          "type": "bytes"
        }
      ],
      "name": "safeTransferFrom",
      "outputs": [],
      "stateMutability": "nonpayable",
      "type": "function"
    },
    {
      "inputs": [
        {
          "internalType": "address",
          "name": "operator",
          "type": "address"
        },
        {
          "internalType": "bool",
          "name": "approved",
          "type": "bool"
        }
      ],
      "name": "setApprovalForAll",
      "outputs": [],
      "stateMutability": "nonpayable",
      "type": "function"
    },
    {
      "inputs": [
        {
          "internalType": "bytes4",
          "name": "interfaceId",
          "type": "bytes4"
        }
      ],
      "name": "supportsInterface",
      "outputs": [
        {
          "internalType": "bool",
          "name": "",
          "type": "bool"
        }
      ],
      "stateMutability": "view",
      "type": "function"
    },
    {
      "inputs": [],
      "name": "symbol",
      "outputs": [
        {
          "internalType": "string",
          "name": "",
          "type": "string"
        }
      ],
      "stateMutability": "view",
      "type": "function"
    },
    {
      "inputs": [
        {
          "internalType": "uint256",
          "name": "tokenId",
          "type": "uint256"
        }
      ],
      "name": "tokenURI",
      "outputs": [
        {
          "internalType": "string",
          "name": "",
          "type": "string"
        }
      ],
      "stateMutability": "view",
      "type": "function"
    },
    {
      "inputs": [
        {
          "internalType": "address",
          "name": "from",
          "type": "address"
        },
        {
          "internalType": "address",
          "name": "to",
          "type": "address"
        },
        {
          "internalType": "uint256",
          "name": "tokenId",
          "type": "uint256"
        }
      ],
      "name": "transferFrom",
      "outputs": [],
      "stateMutability": "nonpayable",
      "type": "function"
    }
  ],
  "bytecode": "0x608060405260405180610100016040528060d3815260200162004aee60d39139600890805190602001906200003692919062000919565b5060405180608001604052806056815260200162004bc160569139600990805190602001906200006892919062000919565b506040518060e001604052806040518060400160405280600981526020017f46616e746173746963000000000000000000000000000000000000000000000081525081526020016040518060400160405280600481526020017f457069630000000000000000000000000000000000000000000000000000000081525081526020016040518060400160405280600881526020017f5465727269626c6500000000000000000000000000000000000000000000000081525081526020016040518060400160405280600581526020017f4372617a7900000000000000000000000000000000000000000000000000000081525081526020016040518060400160405280600481526020017f57696c640000000000000000000000000000000000000000000000000000000081525081526020016040518060400160405280600a81526020017f54657272696679696e670000000000000000000000000000000000000000000081525081526020016040518060400160405280600681526020017f53706f6f6b790000000000000000000000000000000000000000000000000000815250815250600a90600762000221929190620009aa565b506040518060e001604052806040518060400160405280600781526020017f43757063616b650000000000000000000000000000000000000000000000000081525081526020016040518060400160405280600581526020017f50697a7a6100000000000000000000000000000000000000000000000000000081525081526020016040518060400160405280600981526020017f4d696c6b7368616b65000000000000000000000000000000000000000000000081525081526020016040518060400160405280600581526020017f437572727900000000000000000000000000000000000000000000000000000081525081526020016040518060400160405280600781526020017f436869636b656e0000000000000000000000000000000000000000000000000081525081526020016040518060400160405280600881526020017f53616e647769636800000000000000000000000000000000000000000000000081525081526020016040518060400160405280600581526020017f53616c6164000000000000000000000000000000000000000000000000000000815250815250600b906007620003da929190620009aa565b506040518061010001604052806040518060400160405280600681526020017f4e617275746f000000000000000000000000000000000000000000000000000081525081526020016040518060400160405280600681526020017f536173756b65000000000000000000000000000000000000000000000000000081525081526020016040518060400160405280600681526020017f53616b757261000000000000000000000000000000000000000000000000000081525081526020016040518060400160405280600481526020017f476f6b750000000000000000000000000000000000000000000000000000000081525081526020016040518060400160405280600581526020017f476161726100000000000000000000000000000000000000000000000000000081525081526020016040518060400160405280600681526020017f4d696e61746f000000000000000000000000000000000000000000000000000081525081526020016040518060400160405280600781526020017f4b616b617368690000000000000000000000000000000000000000000000000081525081526020016040518060400160405280600681526020017f4d61646172610000000000000000000000000000000000000000000000000000815250815250600c906008620005cf92919062000a11565b506040518060c001604052806040518060400160405280600381526020017f726564000000000000000000000000000000000000000000000000000000000081525081526020016040518060400160405280600781526020017f233038433241380000000000000000000000000000000000000000000000000081525081526020016040518060400160405280600581526020017f626c61636b00000000000000000000000000000000000000000000000000000081525081526020016040518060400160405280600681526020017f79656c6c6f77000000000000000000000000000000000000000000000000000081525081526020016040518060400160405280600481526020017f626c75650000000000000000000000000000000000000000000000000000000081525081526020016040518060400160405280600581526020017f677265656e000000000000000000000000000000000000000000000000000000815250815250600d9060066200074d92919062000a78565b503480156200075b57600080fd5b506040518060400160405280600981526020017f5371756172654e465400000000000000000000000000000000000000000000008152506040518060400160405280600681526020017f53515541524500000000000000000000000000000000000000000000000000008152508160009080519060200190620007e092919062000919565b508060019080519060200190620007f992919062000919565b505050620008476040518060400160405280601e81526020017f54686973206973206d79204e465420636f6e74726163742e2057686f612100008152506200084d60201b620013411760201c565b62000c99565b620008ed8160405160240162000864919062000bad565b6040516020818303038152906040527f41304fac000000000000000000000000000000000000000000000000000000007bffffffffffffffffffffffffffffffffffffffffffffffffffffffff19166020820180517bffffffffffffffffffffffffffffffffffffffffffffffffffffffff8381831617835250505050620008f060201b60201c565b50565b60008151905060006a636f6e736f6c652e6c6f679050602083016000808483855afa5050505050565b828054620009279062000c23565b90600052602060002090601f0160209004810192826200094b576000855562000997565b82601f106200096657805160ff191683800117855562000997565b8280016001018555821562000997579182015b828111156200099657825182559160200191906001019062000979565b5b509050620009a6919062000adf565b5090565b828054828255906000526020600020908101928215620009fe579160200282015b82811115620009fd578251829080519060200190620009ec92919062000919565b5091602001919060010190620009cb565b5b50905062000a0d919062000afe565b5090565b82805482825590600052602060002090810192821562000a65579160200282015b8281111562000a6457825182908051906020019062000a5392919062000919565b509160200191906001019062000a32565b5b50905062000a74919062000afe565b5090565b82805482825590600052602060002090810192821562000acc579160200282015b8281111562000acb57825182908051906020019062000aba92919062000919565b509160200191906001019062000a99565b5b50905062000adb919062000afe565b5090565b5b8082111562000afa57600081600090555060010162000ae0565b5090565b5b8082111562000b22576000818162000b18919062000b26565b5060010162000aff565b5090565b50805462000b349062000c23565b6000825580601f1062000b48575062000b69565b601f01602090049060005260206000209081019062000b68919062000adf565b5b50565b600062000b798262000bd1565b62000b85818562000bdc565b935062000b9781856020860162000bed565b62000ba28162000c88565b840191505092915050565b6000602082019050818103600083015262000bc9818462000b6c565b905092915050565b600081519050919050565b600082825260208201905092915050565b60005b8381101562000c0d57808201518184015260208101905062000bf0565b8381111562000c1d576000848401525b50505050565b6000600282049050600182168062000c3c57607f821691505b6020821081141562000c535762000c5262000c59565b5b50919050565b7f4e487b7100000000000000000000000000000000000000000000000000000000600052602260045260246000fd5b6000601f19601f8301169050919050565b613e458062000ca96000396000f3fe608060405234801561001057600080fd5b50600436106101215760003560e01c80636352211e116100ad578063b88d4fde11610071578063b88d4fde14610340578063c87b56dd1461035c578063de9d132f1461038c578063e8a5411e14610396578063e985e9c5146103c657610121565b80636352211e1461027657806370a08231146102a657806395d89b41146102d6578063a22cb465146102f4578063ad866a751461031057610121565b8063095ea7b3116100f4578063095ea7b3146101c257806323b872dd146101de57806342842e0e146101fa578063514dc8c61461021657806362d3b2f81461024657610121565b806301ffc9a714610126578063060475901461015657806306fdde0314610174578063081812fc14610192575b600080fd5b610140600480360381019061013b9190612809565b6103f6565b60405161014d9190612f95565b60405180910390f35b61015e6104d8565b60405161016b9190613260565b60405180910390f35b61017c610531565b6040516101899190612fb0565b60405180910390f35b6101ac60048036038101906101a7919061285b565b6105c3565b6040516101b99190612f05565b60405180910390f35b6101dc60048036038101906101d791906127cd565b610648565b005b6101f860048036038101906101f391906126c7565b610760565b005b610214600480360381019061020f91906126c7565b6107c0565b005b610230600480360381019061022b919061285b565b6107e0565b60405161023d9190612fb0565b60405180910390f35b610260600480360381019061025b919061285b565b6108fe565b60405161026d9190612fb0565b60405180910390f35b610290600480360381019061028b919061285b565b610a1c565b60405161029d9190612f05565b60405180910390f35b6102c060048036038101906102bb9190612662565b610ace565b6040516102cd9190613260565b60405180910390f35b6102de610b86565b6040516102eb9190612fb0565b60405180910390f35b61030e60048036038101906103099190612791565b610c18565b005b61032a6004803603810190610325919061285b565b610c2e565b6040516103379190612fb0565b60405180910390f35b61035a60048036038101906103559190612716565b610d4c565b005b6103766004803603810190610371919061285b565b610dae565b6040516103839190612fb0565b60405180910390f35b610394610f00565b005b6103b060048036038101906103ab919061285b565b61118f565b6040516103bd9190612fb0565b60405180910390f35b6103e060048036038101906103db919061268b565b6112ad565b6040516103ed9190612f95565b60405180910390f35b60007f80ac58cd000000000000000000000000000000000000000000000000000000007bffffffffffffffffffffffffffffffffffffffffffffffffffffffff1916827bffffffffffffffffffffffffffffffffffffffffffffffffffffffff191614806104c157507f5b5e139f000000000000000000000000000000000000000000000000000000007bffffffffffffffffffffffffffffffffffffffffffffffffffffffff1916827bffffffffffffffffffffffffffffffffffffffffffffffffffffffff1916145b806104d157506104d0826113da565b5b9050919050565b60006105226040518060400160405280601681526020017f5765206861766520256420746f74616c204e465473210000000000000000000081525061051d6007611444565b611452565b61052c6007611444565b905090565b606060008054610540906134f4565b80601f016020809104026020016040519081016040528092919081815260200182805461056c906134f4565b80156105b95780601f1061058e576101008083540402835291602001916105b9565b820191906000526020600020905b81548152906001019060200180831161059c57829003601f168201915b5050505050905090565b60006105ce826114ee565b61060d576040517f08c379a0000000000000000000000000000000000000000000000000000000008152600401610604906131e0565b60405180910390fd5b6004600083815260200190815260200160002060009054906101000a900473ffffffffffffffffffffffffffffffffffffffff169050919050565b600061065382610a1c565b90508073ffffffffffffffffffffffffffffffffffffffff168373ffffffffffffffffffffffffffffffffffffffff1614156106c4576040517f08c379a00000000000000000000000000000000000000000000000000000000081526004016106bb90613220565b60405180910390fd5b8073ffffffffffffffffffffffffffffffffffffffff166106e361155a565b73ffffffffffffffffffffffffffffffffffffffff16148061071257506107118161070c61155a565b6112ad565b5b610751576040517f08c379a000000000000000000000000000000000000000000000000000000000815260040161074890613120565b60405180910390fd5b61075b8383611562565b505050565b61077161076b61155a565b8261161b565b6107b0576040517f08c379a00000000000000000000000000000000000000000000000000000000081526004016107a790613240565b60405180910390fd5b6107bb8383836116f9565b505050565b6107db83838360405180602001604052806000815250610d4c565b505050565b606060006108146107f084611960565b6040516020016108009190612ee3565b604051602081830303815290604052611b0d565b9050600d805490508161082791906135a0565b9050600d8181548110610863577f4e487b7100000000000000000000000000000000000000000000000000000000600052603260045260246000fd5b906000526020600020018054610878906134f4565b80601f01602080910402602001604051908101604052809291908181526020018280546108a4906134f4565b80156108f15780601f106108c6576101008083540402835291602001916108f1565b820191906000526020600020905b8154815290600101906020018083116108d457829003601f168201915b5050505050915050919050565b6060600061093261090e84611960565b60405160200161091e9190612e38565b604051602081830303815290604052611b0d565b9050600b805490508161094591906135a0565b9050600b8181548110610981577f4e487b7100000000000000000000000000000000000000000000000000000000600052603260045260246000fd5b906000526020600020018054610996906134f4565b80601f01602080910402602001604051908101604052809291908181526020018280546109c2906134f4565b8015610a0f5780601f106109e457610100808354040283529160200191610a0f565b820191906000526020600020905b8154815290600101906020018083116109f257829003601f168201915b5050505050915050919050565b6000806002600084815260200190815260200160002060009054906101000a900473ffffffffffffffffffffffffffffffffffffffff169050600073ffffffffffffffffffffffffffffffffffffffff168173ffffffffffffffffffffffffffffffffffffffff161415610ac5576040517f08c379a0000000000000000000000000000000000000000000000000000000008152600401610abc90613160565b60405180910390fd5b80915050919050565b60008073ffffffffffffffffffffffffffffffffffffffff168273ffffffffffffffffffffffffffffffffffffffff161415610b3f576040517f08c379a0000000000000000000000000000000000000000000000000000000008152600401610b3690613140565b60405180910390fd5b600360008373ffffffffffffffffffffffffffffffffffffffff1673ffffffffffffffffffffffffffffffffffffffff168152602001908152602001600020549050919050565b606060018054610b95906134f4565b80601f0160208091040260200160405190810160405280929190818152602001828054610bc1906134f4565b8015610c0e5780601f10610be357610100808354040283529160200191610c0e565b820191906000526020600020905b815481529060010190602001808311610bf157829003601f168201915b5050505050905090565b610c2a610c2361155a565b8383611b40565b5050565b60606000610c62610c3e84611960565b604051602001610c4e9190612e9f565b604051602081830303815290604052611b0d565b9050600a8054905081610c7591906135a0565b9050600a8181548110610cb1577f4e487b7100000000000000000000000000000000000000000000000000000000600052603260045260246000fd5b906000526020600020018054610cc6906134f4565b80601f0160208091040260200160405190810160405280929190818152602001828054610cf2906134f4565b8015610d3f5780601f10610d1457610100808354040283529160200191610d3f565b820191906000526020600020905b815481529060010190602001808311610d2257829003601f168201915b5050505050915050919050565b610d5d610d5761155a565b8361161b565b610d9c576040517f08c379a0000000000000000000000000000000000000000000000000000000008152600401610d9390613240565b60405180910390fd5b610da884848484611cad565b50505050565b6060610db9826114ee565b610df8576040517f08c379a0000000000000000000000000000000000000000000000000000000008152600401610def906131c0565b60405180910390fd5b6000600660008481526020019081526020016000208054610e18906134f4565b80601f0160208091040260200160405190810160405280929190818152602001828054610e44906134f4565b8015610e915780601f10610e6657610100808354040283529160200191610e91565b820191906000526020600020905b815481529060010190602001808311610e7457829003601f168201915b505050505090506000610ea2611d09565b9050600081511415610eb8578192505050610efb565b600082511115610eed578082604051602001610ed5929190612d78565b60405160208183030381529060405292505050610efb565b610ef684611d20565b925050505b919050565b610f486040518060400160405280601381526020017f5f746f6b656e4964732e63757272656e74282900000000000000000000000000815250610f436007611444565b611452565b6032610f546007611444565b1115610f95576040517f08c379a0000000000000000000000000000000000000000000000000000000008152600401610f8c906130a0565b60405180910390fd5b6000610fa16007611444565b90506000610fae82610c2e565b90506000610fbb836108fe565b90506000610fc88461118f565b90506000838383604051602001610fe193929190612d9c565b60405160208183030381529060405290506000610ffd866107e0565b9050600060088260098560405160200161101a9493929190612dcd565b6040516020818303038152906040529050600061105f8461103a84611dc7565b60405160200161104b929190612e5a565b604051602081830303815290604052611dc7565b90506000816040516020016110749190612ec1565b60405160208183030381529060405290506110c36040518060400160405280601381526020017f0a2d2d2d2d2d2d2d2d2d2d2d2d2d2d2d2d2d2d00000000000000000000000000815250611341565b6110cc81611341565b61110a6040518060400160405280601581526020017f2d2d2d2d2d2d2d2d2d2d2d2d2d2d2d2d2d2d2d2d0a0000000000000000000000815250611341565b611114338a611f85565b61111e8982611fa3565b6111286007612017565b61114b604051806060016040528060258152602001613dab602591398a3361202d565b7febb98688741ffa4c7589bf325de30cf7becb63de567842e1ccdb6cb949fdc82c338a60405161117c929190612f6c565b60405180910390a1505050505050505050565b606060006111c361119f84611960565b6040516020016111af9190612e16565b604051602081830303815290604052611b0d565b9050600c80549050816111d691906135a0565b9050600c8181548110611212577f4e487b7100000000000000000000000000000000000000000000000000000000600052603260045260246000fd5b906000526020600020018054611227906134f4565b80601f0160208091040260200160405190810160405280929190818152602001828054611253906134f4565b80156112a05780601f10611275576101008083540402835291602001916112a0565b820191906000526020600020905b81548152906001019060200180831161128357829003601f168201915b5050505050915050919050565b6000600560008473ffffffffffffffffffffffffffffffffffffffff1673ffffffffffffffffffffffffffffffffffffffff16815260200190815260200160002060008373ffffffffffffffffffffffffffffffffffffffff1673ffffffffffffffffffffffffffffffffffffffff16815260200190815260200160002060009054906101000a900460ff16905092915050565b6113d7816040516024016113559190612fb0565b6040516020818303038152906040527f41304fac000000000000000000000000000000000000000000000000000000007bffffffffffffffffffffffffffffffffffffffffffffffffffffffff19166020820180517bffffffffffffffffffffffffffffffffffffffffffffffffffffffff83818316178352505050506120cc565b50565b60007f01ffc9a7000000000000000000000000000000000000000000000000000000007bffffffffffffffffffffffffffffffffffffffffffffffffffffffff1916827bffffffffffffffffffffffffffffffffffffffffffffffffffffffff1916149050919050565b600081600001549050919050565b6114ea8282604051602401611468929190612fd2565b6040516020818303038152906040527f9710a9d0000000000000000000000000000000000000000000000000000000007bffffffffffffffffffffffffffffffffffffffffffffffffffffffff19166020820180517bffffffffffffffffffffffffffffffffffffffffffffffffffffffff83818316178352505050506120cc565b5050565b60008073ffffffffffffffffffffffffffffffffffffffff166002600084815260200190815260200160002060009054906101000a900473ffffffffffffffffffffffffffffffffffffffff1673ffffffffffffffffffffffffffffffffffffffff1614159050919050565b600033905090565b816004600083815260200190815260200160002060006101000a81548173ffffffffffffffffffffffffffffffffffffffff021916908373ffffffffffffffffffffffffffffffffffffffff160217905550808273ffffffffffffffffffffffffffffffffffffffff166115d583610a1c565b73ffffffffffffffffffffffffffffffffffffffff167f8c5be1e5ebec7d5bd14f71427d1e84f3dd0314c0f7b2291e5b200ac8c7c3b92560405160405180910390a45050565b6000611626826114ee565b611665576040517f08c379a000000000000000000000000000000000000000000000000000000000815260040161165c90613100565b60405180910390fd5b600061167083610a1c565b90508073ffffffffffffffffffffffffffffffffffffffff168473ffffffffffffffffffffffffffffffffffffffff1614806116b257506116b181856112ad565b5b806116f057508373ffffffffffffffffffffffffffffffffffffffff166116d8846105c3565b73ffffffffffffffffffffffffffffffffffffffff16145b91505092915050565b8273ffffffffffffffffffffffffffffffffffffffff1661171982610a1c565b73ffffffffffffffffffffffffffffffffffffffff161461176f576040517f08c379a000000000000000000000000000000000000000000000000000000000815260040161176690613060565b60405180910390fd5b600073ffffffffffffffffffffffffffffffffffffffff168273ffffffffffffffffffffffffffffffffffffffff1614156117df576040517f08c379a00000000000000000000000000000000000000000000000000000000081526004016117d6906130c0565b60405180910390fd5b6117ea8383836120f5565b6117f5600082611562565b6001600360008573ffffffffffffffffffffffffffffffffffffffff1673ffffffffffffffffffffffffffffffffffffffff1681526020019081526020016000206000828254611845919061340a565b925050819055506001600360008473ffffffffffffffffffffffffffffffffffffffff1673ffffffffffffffffffffffffffffffffffffffff168152602001908152602001600020600082825461189c9190613329565b92505081905550816002600083815260200190815260200160002060006101000a81548173ffffffffffffffffffffffffffffffffffffffff021916908373ffffffffffffffffffffffffffffffffffffffff160217905550808273ffffffffffffffffffffffffffffffffffffffff168473ffffffffffffffffffffffffffffffffffffffff167fddf252ad1be2c89b69c2b068fc378daa952ba7f163c4a11628f55a4df523b3ef60405160405180910390a461195b8383836120fa565b505050565b606060008214156119a8576040518060400160405280600181526020017f30000000000000000000000000000000000000000000000000000000000000008152509050611b08565b600082905060005b600082146119da5780806119c390613557565b915050600a826119d3919061337f565b91506119b0565b60008167ffffffffffffffff811115611a1c577f4e487b7100000000000000000000000000000000000000000000000000000000600052604160045260246000fd5b6040519080825280601f01601f191660200182016040528015611a4e5781602001600182028036833780820191505090505b5090505b60008514611b0157600182611a67919061340a565b9150600a85611a7691906135a0565b6030611a829190613329565b60f81b818381518110611abe577f4e487b7100000000000000000000000000000000000000000000000000000000600052603260045260246000fd5b60200101907effffffffffffffffffffffffffffffffffffffffffffffffffffffffffffff1916908160001a905350600a85611afa919061337f565b9450611a52565b8093505050505b919050565b600081604051602001611b209190612d61565b6040516020818303038152906040528051906020012060001c9050919050565b8173ffffffffffffffffffffffffffffffffffffffff168373ffffffffffffffffffffffffffffffffffffffff161415611baf576040517f08c379a0000000000000000000000000000000000000000000000000000000008152600401611ba6906130e0565b60405180910390fd5b80600560008573ffffffffffffffffffffffffffffffffffffffff1673ffffffffffffffffffffffffffffffffffffffff16815260200190815260200160002060008473ffffffffffffffffffffffffffffffffffffffff1673ffffffffffffffffffffffffffffffffffffffff16815260200190815260200160002060006101000a81548160ff0219169083151502179055508173ffffffffffffffffffffffffffffffffffffffff168373ffffffffffffffffffffffffffffffffffffffff167f17307eab39ab6107e8899845ad3d59bd9653f200f220920489ca2b5937696c3183604051611ca09190612f95565b60405180910390a3505050565b611cb88484846116f9565b611cc4848484846120ff565b611d03576040517f08c379a0000000000000000000000000000000000000000000000000000000008152600401611cfa90613040565b60405180910390fd5b50505050565b606060405180602001604052806000815250905090565b6060611d2b826114ee565b611d6a576040517f08c379a0000000000000000000000000000000000000000000000000000000008152600401611d6190613200565b60405180910390fd5b6000611d74611d09565b90506000815111611d945760405180602001604052806000815250611dbf565b80611d9e84611960565b604051602001611daf929190612d78565b6040516020818303038152906040525b915050919050565b60606000825190506000811415611df05760405180602001604052806000815250915050611f80565b60006003600283611e019190613329565b611e0b919061337f565b6004611e1791906133b0565b90506000602082611e289190613329565b67ffffffffffffffff811115611e67577f4e487b7100000000000000000000000000000000000000000000000000000000600052604160045260246000fd5b6040519080825280601f01601f191660200182016040528015611e995781602001600182028036833780820191505090505b5090506000604051806060016040528060408152602001613dd0604091399050600181016020830160005b86811015611f3d5760038101905062ffffff818a015116603f8160121c168401518060081b905060ff603f83600c1c1686015116810190508060081b905060ff603f8360061c1686015116810190508060081b905060ff603f831686015116810190508060e01b90508084526004840193505050611ec4565b506003860660018114611f575760028114611f6757611f72565b613d3d60f01b6002830352611f72565b603d60f81b60018303525b508484525050819450505050505b919050565b611f9f828260405180602001604052806000815250612296565b5050565b611fac826114ee565b611feb576040517f08c379a0000000000000000000000000000000000000000000000000000000008152600401611fe290613180565b60405180910390fd5b806006600084815260200190815260200160002090805190602001906120129291906124ee565b505050565b6001816000016000828254019250508190555050565b6120c783838360405160240161204593929190613002565b6040516020818303038152906040527fe3849f79000000000000000000000000000000000000000000000000000000007bffffffffffffffffffffffffffffffffffffffffffffffffffffffff19166020820180517bffffffffffffffffffffffffffffffffffffffffffffffffffffffff83818316178352505050506120cc565b505050565b60008151905060006a636f6e736f6c652e6c6f679050602083016000808483855afa5050505050565b505050565b505050565b60006121208473ffffffffffffffffffffffffffffffffffffffff166122f1565b15612289578373ffffffffffffffffffffffffffffffffffffffff1663150b7a0261214961155a565b8786866040518563ffffffff1660e01b815260040161216b9493929190612f20565b602060405180830381600087803b15801561218557600080fd5b505af19250505080156121b657506040513d601f19601f820116820180604052508101906121b39190612832565b60015b612239573d80600081146121e6576040519150601f19603f3d011682016040523d82523d6000602084013e6121eb565b606091505b50600081511415612231576040517f08c379a000000000000000000000000000000000000000000000000000000000815260040161222890613040565b60405180910390fd5b805181602001fd5b63150b7a0260e01b7bffffffffffffffffffffffffffffffffffffffffffffffffffffffff1916817bffffffffffffffffffffffffffffffffffffffffffffffffffffffff19161491505061228e565b600190505b949350505050565b6122a08383612314565b6122ad60008484846120ff565b6122ec576040517f08c379a00000000000000000000000000000000000000000000000000000000081526004016122e390613040565b60405180910390fd5b505050565b6000808273ffffffffffffffffffffffffffffffffffffffff163b119050919050565b600073ffffffffffffffffffffffffffffffffffffffff168273ffffffffffffffffffffffffffffffffffffffff161415612384576040517f08c379a000000000000000000000000000000000000000000000000000000000815260040161237b906131a0565b60405180910390fd5b61238d816114ee565b156123cd576040517f08c379a00000000000000000000000000000000000000000000000000000000081526004016123c490613080565b60405180910390fd5b6123d9600083836120f5565b6001600360008473ffffffffffffffffffffffffffffffffffffffff1673ffffffffffffffffffffffffffffffffffffffff16815260200190815260200160002060008282546124299190613329565b92505081905550816002600083815260200190815260200160002060006101000a81548173ffffffffffffffffffffffffffffffffffffffff021916908373ffffffffffffffffffffffffffffffffffffffff160217905550808273ffffffffffffffffffffffffffffffffffffffff16600073ffffffffffffffffffffffffffffffffffffffff167fddf252ad1be2c89b69c2b068fc378daa952ba7f163c4a11628f55a4df523b3ef60405160405180910390a46124ea600083836120fa565b5050565b8280546124fa906134f4565b90600052602060002090601f01602090048101928261251c5760008555612563565b82601f1061253557805160ff1916838001178555612563565b82800160010185558215612563579182015b82811115612562578251825591602001919060010190612547565b5b5090506125709190612574565b5090565b5b8082111561258d576000816000905550600101612575565b5090565b60006125a461259f846132a0565b61327b565b9050828152602081018484840111156125bc57600080fd5b6125c78482856134b2565b509392505050565b6000813590506125de81613d4e565b92915050565b6000813590506125f381613d65565b92915050565b60008135905061260881613d7c565b92915050565b60008151905061261d81613d7c565b92915050565b600082601f83011261263457600080fd5b8135612644848260208601612591565b91505092915050565b60008135905061265c81613d93565b92915050565b60006020828403121561267457600080fd5b6000612682848285016125cf565b91505092915050565b6000806040838503121561269e57600080fd5b60006126ac858286016125cf565b92505060206126bd858286016125cf565b9150509250929050565b6000806000606084860312156126dc57600080fd5b60006126ea868287016125cf565b93505060206126fb868287016125cf565b925050604061270c8682870161264d565b9150509250925092565b6000806000806080858703121561272c57600080fd5b600061273a878288016125cf565b945050602061274b878288016125cf565b935050604061275c8782880161264d565b925050606085013567ffffffffffffffff81111561277957600080fd5b61278587828801612623565b91505092959194509250565b600080604083850312156127a457600080fd5b60006127b2858286016125cf565b92505060206127c3858286016125e4565b9150509250929050565b600080604083850312156127e057600080fd5b60006127ee858286016125cf565b92505060206127ff8582860161264d565b9150509250929050565b60006020828403121561281b57600080fd5b6000612829848285016125f9565b91505092915050565b60006020828403121561284457600080fd5b60006128528482850161260e565b91505092915050565b60006020828403121561286d57600080fd5b600061287b8482850161264d565b91505092915050565b61288d8161343e565b82525050565b61289c81613450565b82525050565b60006128ad826132e6565b6128b781856132fc565b93506128c78185602086016134c1565b6128d08161368d565b840191505092915050565b60006128e6826132f1565b6128f0818561330d565b93506129008185602086016134c1565b6129098161368d565b840191505092915050565b600061291f826132f1565b612929818561331e565b93506129398185602086016134c1565b80840191505092915050565b60008154612952816134f4565b61295c818661331e565b945060018216600081146129775760018114612988576129bb565b60ff198316865281860193506129bb565b612991856132d1565b60005b838110156129b357815481890152600182019150602081019050612994565b838801955050505b50505092915050565b60006129d160328361330d565b91506129dc8261369e565b604082019050919050565b60006129f460258361330d565b91506129ff826136ed565b604082019050919050565b6000612a17601c8361330d565b9150612a228261373c565b602082019050919050565b6000612a3a600a8361331e565b9150612a4582613765565b600a82019050919050565b6000612a5d60348361330d565b9150612a688261378e565b604082019050919050565b6000612a8060248361330d565b9150612a8b826137dd565b604082019050919050565b6000612aa360198361330d565b9150612aae8261382c565b602082019050919050565b6000612ac6600b8361331e565b9150612ad182613855565b600b82019050919050565b6000612ae9602c8361330d565b9150612af48261387e565b604082019050919050565b6000612b0c600d8361331e565b9150612b17826138cd565b600d82019050919050565b6000612b2f60388361330d565b9150612b3a826138f6565b604082019050919050565b6000612b52602a8361330d565b9150612b5d82613945565b604082019050919050565b6000612b7560298361330d565b9150612b8082613994565b604082019050919050565b6000612b98602e8361330d565b9150612ba3826139e3565b604082019050919050565b6000612bbb60028361331e565b9150612bc682613a32565b600282019050919050565b6000612bde60208361330d565b9150612be982613a5b565b602082019050919050565b6000612c0160318361330d565b9150612c0c82613a84565b604082019050919050565b6000612c24602c8361330d565b9150612c2f82613ad3565b604082019050919050565b6000612c47602f8361330d565b9150612c5282613b22565b604082019050919050565b6000612c6a600a8361331e565b9150612c7582613b71565b600a82019050919050565b6000612c8d60218361330d565b9150612c9882613b9a565b604082019050919050565b6000612cb0600a8361331e565b9150612cbb82613be9565b600a82019050919050565b6000612cd3601d8361331e565b9150612cde82613c12565b601d82019050919050565b6000612cf660318361330d565b9150612d0182613c3b565b604082019050919050565b6000612d1960058361331e565b9150612d2482613c8a565b600582019050919050565b6000612d3c60628361331e565b9150612d4782613cb3565b606282019050919050565b612d5b816134a8565b82525050565b6000612d6d8284612914565b915081905092915050565b6000612d848285612914565b9150612d908284612914565b91508190509392505050565b6000612da88286612914565b9150612db48285612914565b9150612dc08284612914565b9150819050949350505050565b6000612dd98287612945565b9150612de58286612914565b9150612df18285612945565b9150612dfd8284612914565b9150612e0882612aff565b915081905095945050505050565b6000612e2182612a2d565b9150612e2d8284612914565b915081905092915050565b6000612e4382612ab9565b9150612e4f8284612914565b915081905092915050565b6000612e6582612c5d565b9150612e718285612914565b9150612e7c82612d2f565b9150612e888284612914565b9150612e9382612bae565b91508190509392505050565b6000612eaa82612ca3565b9150612eb68284612914565b915081905092915050565b6000612ecc82612cc6565b9150612ed88284612914565b915081905092915050565b6000612eee82612d0c565b9150612efa8284612914565b915081905092915050565b6000602082019050612f1a6000830184612884565b92915050565b6000608082019050612f356000830187612884565b612f426020830186612884565b612f4f6040830185612d52565b8181036060830152612f6181846128a2565b905095945050505050565b6000604082019050612f816000830185612884565b612f8e6020830184612d52565b9392505050565b6000602082019050612faa6000830184612893565b92915050565b60006020820190508181036000830152612fca81846128db565b905092915050565b60006040820190508181036000830152612fec81856128db565b9050612ffb6020830184612d52565b9392505050565b6000606082019050818103600083015261301c81866128db565b905061302b6020830185612d52565b6130386040830184612884565b949350505050565b60006020820190508181036000830152613059816129c4565b9050919050565b60006020820190508181036000830152613079816129e7565b9050919050565b6000602082019050818103600083015261309981612a0a565b9050919050565b600060208201905081810360008301526130b981612a50565b9050919050565b600060208201905081810360008301526130d981612a73565b9050919050565b600060208201905081810360008301526130f981612a96565b9050919050565b6000602082019050818103600083015261311981612adc565b9050919050565b6000602082019050818103600083015261313981612b22565b9050919050565b6000602082019050818103600083015261315981612b45565b9050919050565b6000602082019050818103600083015261317981612b68565b9050919050565b6000602082019050818103600083015261319981612b8b565b9050919050565b600060208201905081810360008301526131b981612bd1565b9050919050565b600060208201905081810360008301526131d981612bf4565b9050919050565b600060208201905081810360008301526131f981612c17565b9050919050565b6000602082019050818103600083015261321981612c3a565b9050919050565b6000602082019050818103600083015261323981612c80565b9050919050565b6000602082019050818103600083015261325981612ce9565b9050919050565b60006020820190506132756000830184612d52565b92915050565b6000613285613296565b90506132918282613526565b919050565b6000604051905090565b600067ffffffffffffffff8211156132bb576132ba61365e565b5b6132c48261368d565b9050602081019050919050565b60008190508160005260206000209050919050565b600081519050919050565b600081519050919050565b600082825260208201905092915050565b600082825260208201905092915050565b600081905092915050565b6000613334826134a8565b915061333f836134a8565b9250827fffffffffffffffffffffffffffffffffffffffffffffffffffffffffffffffff03821115613374576133736135d1565b5b828201905092915050565b600061338a826134a8565b9150613395836134a8565b9250826133a5576133a4613600565b5b828204905092915050565b60006133bb826134a8565b91506133c6836134a8565b9250817fffffffffffffffffffffffffffffffffffffffffffffffffffffffffffffffff04831182151516156133ff576133fe6135d1565b5b828202905092915050565b6000613415826134a8565b9150613420836134a8565b925082821015613433576134326135d1565b5b828203905092915050565b600061344982613488565b9050919050565b60008115159050919050565b60007fffffffff0000000000000000000000000000000000000000000000000000000082169050919050565b600073ffffffffffffffffffffffffffffffffffffffff82169050919050565b6000819050919050565b82818337600083830152505050565b60005b838110156134df5780820151818401526020810190506134c4565b838111156134ee576000848401525b50505050565b6000600282049050600182168061350c57607f821691505b602082108114156135205761351f61362f565b5b50919050565b61352f8261368d565b810181811067ffffffffffffffff8211171561354e5761354d61365e565b5b80604052505050565b6000613562826134a8565b91507fffffffffffffffffffffffffffffffffffffffffffffffffffffffffffffffff821415613595576135946135d1565b5b600182019050919050565b60006135ab826134a8565b91506135b6836134a8565b9250826135c6576135c5613600565b5b828206905092915050565b7f4e487b7100000000000000000000000000000000000000000000000000000000600052601160045260246000fd5b7f4e487b7100000000000000000000000000000000000000000000000000000000600052601260045260246000fd5b7f4e487b7100000000000000000000000000000000000000000000000000000000600052602260045260246000fd5b7f4e487b7100000000000000000000000000000000000000000000000000000000600052604160045260246000fd5b6000601f19601f8301169050919050565b7f4552433732313a207472616e7366657220746f206e6f6e20455243373231526560008201527f63656976657220696d706c656d656e7465720000000000000000000000000000602082015250565b7f4552433732313a207472616e736665722066726f6d20696e636f72726563742060008201527f6f776e6572000000000000000000000000000000000000000000000000000000602082015250565b7f4552433732313a20746f6b656e20616c7265616479206d696e74656400000000600082015250565b7f54484952445f574f524400000000000000000000000000000000000000000000600082015250565b7f547279696e6720746f207769746864726177206d6f7265206d6f6e657920746860008201527f616e2074686520636f6e7472616374206861732e000000000000000000000000602082015250565b7f4552433732313a207472616e7366657220746f20746865207a65726f2061646460008201527f7265737300000000000000000000000000000000000000000000000000000000602082015250565b7f4552433732313a20617070726f766520746f2063616c6c657200000000000000600082015250565b7f5345434f4e445f574f5244000000000000000000000000000000000000000000600082015250565b7f4552433732313a206f70657261746f7220717565727920666f72206e6f6e657860008201527f697374656e7420746f6b656e0000000000000000000000000000000000000000602082015250565b7f3c2f746578743e3c2f7376673e00000000000000000000000000000000000000600082015250565b7f4552433732313a20617070726f76652063616c6c6572206973206e6f74206f7760008201527f6e6572206e6f7220617070726f76656420666f7220616c6c0000000000000000602082015250565b7f4552433732313a2062616c616e636520717565727920666f7220746865207a6560008201527f726f206164647265737300000000000000000000000000000000000000000000602082015250565b7f4552433732313a206f776e657220717565727920666f72206e6f6e657869737460008201527f656e7420746f6b656e0000000000000000000000000000000000000000000000602082015250565b7f45524337323155524953746f726167653a2055524920736574206f66206e6f6e60008201527f6578697374656e7420746f6b656e000000000000000000000000000000000000602082015250565b7f227d000000000000000000000000000000000000000000000000000000000000600082015250565b7f4552433732313a206d696e7420746f20746865207a65726f2061646472657373600082015250565b7f45524337323155524953746f726167653a2055524920717565727920666f722060008201527f6e6f6e6578697374656e7420746f6b656e000000000000000000000000000000602082015250565b7f4552433732313a20617070726f76656420717565727920666f72206e6f6e657860008201527f697374656e7420746f6b656e0000000000000000000000000000000000000000602082015250565b7f4552433732314d657461646174613a2055524920717565727920666f72206e6f60008201527f6e6578697374656e7420746f6b656e0000000000000000000000000000000000602082015250565b7f7b226e616d65223a202200000000000000000000000000000000000000000000600082015250565b7f4552433732313a20617070726f76616c20746f2063757272656e74206f776e6560008201527f7200000000000000000000000000000000000000000000000000000000000000602082015250565b7f46495253545f574f524400000000000000000000000000000000000000000000600082015250565b7f646174613a6170706c69636174696f6e2f6a736f6e3b6261736536342c000000600082015250565b7f4552433732313a207472616e736665722063616c6c6572206973206e6f74206f60008201527f776e6572206e6f7220617070726f766564000000000000000000000000000000602082015250565b7f434f4c4f52000000000000000000000000000000000000000000000000000000600082015250565b7f222c20226465736372697074696f6e223a20224120686967686c79206163636c60008201527f61696d656420636f6c6c656374696f6e206f6620737175617265732e222c202260208201527f696d616765223a22646174613a696d6167652f7376672b786d6c3b626173653660408201527f342c000000000000000000000000000000000000000000000000000000000000606082015250565b613d578161343e565b8114613d6257600080fd5b50565b613d6e81613450565b8114613d7957600080fd5b50565b613d858161345c565b8114613d9057600080fd5b50565b613d9c816134a8565b8114613da757600080fd5b5056fe416e204e465420772f20494420257320686173206265656e206d696e74656420746f2025734142434445464748494a4b4c4d4e4f505152535455565758595a6162636465666768696a6b6c6d6e6f707172737475767778797a303132333435363738392b2fa2646970667358221220193e523eb57bdcf243561a47a4b41288a86b253d90534d53fc8130f02f50b10b64736f6c634300080100333c73766720786d6c6e733d27687474703a2f2f7777772e77332e6f72672f323030302f73766727207072657365727665417370656374526174696f3d27784d696e594d696e206d656574272076696577426f783d273020302033353020333530273e3c7374796c653e2e62617365207b2066696c6c3a2077686974653b20666f6e742d66616d696c793a2073657269663b20666f6e742d73697a653a20323470783b207d3c2f7374796c653e3c726563742077696474683d273130302527206865696768743d2731303025272066696c6c3d27272f3e3c7465787420783d273530252720793d273530252720636c6173733d27626173652720646f6d696e616e742d626173656c696e653d276d6964646c652720746578742d616e63686f723d276d6964646c65273e",
  "linkReferences": {},
  "deployedLinkReferences": {}
}