{
  "_format": "hh-sol-artifact-1",
  "contractName": "MyEpicNFT",
  "sourceName": "contracts/MyEpicNFT.sol",
  "abi": [
    {
      "inputs": [],
      "stateMutability": "nonpayable",
      "type": "constructor"
    },
    {
      "anonymous": false,
      "inputs": [
        {
          "indexed": true,
          "internalType": "address",
          "name": "owner",
          "type": "address"
        },
        {
          "indexed": true,
          "internalType": "address",
          "name": "approved",
          "type": "address"
        },
        {
          "indexed": true,
          "internalType": "uint256",
          "name": "tokenId",
          "type": "uint256"
        }
      ],
      "name": "Approval",
      "type": "event"
    },
    {
      "anonymous": false,
      "inputs": [
        {
          "indexed": true,
          "internalType": "address",
          "name": "owner",
          "type": "address"
        },
        {
          "indexed": true,
          "internalType": "address",
          "name": "operator",
          "type": "address"
        },
        {
          "indexed": false,
          "internalType": "bool",
          "name": "approved",
          "type": "bool"
        }
      ],
      "name": "ApprovalForAll",
      "type": "event"
    },
    {
      "anonymous": false,
      "inputs": [
        {
          "indexed": false,
          "internalType": "address",
          "name": "sender",
          "type": "address"
        },
        {
          "indexed": false,
          "internalType": "uint256",
          "name": "tokeId",
          "type": "uint256"
        }
      ],
      "name": "NewEpicNFTMinted",
      "type": "event"
    },
    {
      "anonymous": false,
      "inputs": [
        {
          "indexed": true,
          "internalType": "address",
          "name": "from",
          "type": "address"
        },
        {
          "indexed": true,
          "internalType": "address",
          "name": "to",
          "type": "address"
        },
        {
          "indexed": true,
          "internalType": "uint256",
          "name": "tokenId",
          "type": "uint256"
        }
      ],
      "name": "Transfer",
      "type": "event"
    },
    {
      "inputs": [
        {
          "internalType": "address",
          "name": "to",
          "type": "address"
        },
        {
          "internalType": "uint256",
          "name": "tokenId",
          "type": "uint256"
        }
      ],
      "name": "approve",
      "outputs": [],
      "stateMutability": "nonpayable",
      "type": "function"
    },
    {
      "inputs": [
        {
          "internalType": "address",
          "name": "owner",
          "type": "address"
        }
      ],
      "name": "balanceOf",
      "outputs": [
        {
          "internalType": "uint256",
          "name": "",
          "type": "uint256"
        }
      ],
      "stateMutability": "view",
      "type": "function"
    },
    {
      "inputs": [
        {
          "internalType": "uint256",
          "name": "tokenId",
          "type": "uint256"
        }
      ],
      "name": "getApproved",
      "outputs": [
        {
          "internalType": "address",
          "name": "",
          "type": "address"
        }
      ],
      "stateMutability": "view",
      "type": "function"
    },
    {
      "inputs": [
        {
          "internalType": "address",
          "name": "owner",
          "type": "address"
        },
        {
          "internalType": "address",
          "name": "operator",
          "type": "address"
        }
      ],
      "name": "isApprovedForAll",
      "outputs": [
        {
          "internalType": "bool",
          "name": "",
          "type": "bool"
        }
      ],
      "stateMutability": "view",
      "type": "function"
    },
    {
      "inputs": [],
      "name": "makeAnEpicNFT",
      "outputs": [],
      "stateMutability": "nonpayable",
      "type": "function"
    },
    {
      "inputs": [],
      "name": "name",
      "outputs": [
        {
          "internalType": "string",
          "name": "",
          "type": "string"
        }
      ],
      "stateMutability": "view",
      "type": "function"
    },
    {
      "inputs": [
        {
          "internalType": "uint256",
          "name": "tokenId",
          "type": "uint256"
        }
      ],
      "name": "ownerOf",
      "outputs": [
        {
          "internalType": "address",
          "name": "",
          "type": "address"
        }
      ],
      "stateMutability": "view",
      "type": "function"
    },
    {
      "inputs": [
        {
          "internalType": "uint256",
          "name": "tokenId",
          "type": "uint256"
        }
      ],
      "name": "pickRandomColor",
      "outputs": [
        {
          "internalType": "string",
          "name": "",
          "type": "string"
        }
      ],
      "stateMutability": "view",
      "type": "function"
    },
    {
      "inputs": [
        {
          "internalType": "uint256",
          "name": "tokenId",
          "type": "uint256"
        }
      ],
      "name": "pickRandormFirstWord",
      "outputs": [
        {
          "internalType": "string",
          "name": "",
          "type": "string"
        }
      ],
      "stateMutability": "view",
      "type": "function"
    },
    {
      "inputs": [
        {
          "internalType": "uint256",
          "name": "tokenId",
          "type": "uint256"
        }
      ],
      "name": "pickRandormSecondWord",
      "outputs": [
        {
          "internalType": "string",
          "name": "",
          "type": "string"
        }
      ],
      "stateMutability": "view",
      "type": "function"
    },
    {
      "inputs": [
        {
          "internalType": "uint256",
          "name": "tokenId",
          "type": "uint256"
        }
      ],
      "name": "pickRandormThirdWord",
      "outputs": [
        {
          "internalType": "string",
          "name": "",
          "type": "string"
        }
      ],
      "stateMutability": "view",
      "type": "function"
    },
    {
      "inputs": [
        {
          "internalType": "address",
          "name": "from",
          "type": "address"
        },
        {
          "internalType": "address",
          "name": "to",
          "type": "address"
        },
        {
          "internalType": "uint256",
          "name": "tokenId",
          "type": "uint256"
        }
      ],
      "name": "safeTransferFrom",
      "outputs": [],
      "stateMutability": "nonpayable",
      "type": "function"
    },
    {
      "inputs": [
        {
          "internalType": "address",
          "name": "from",
          "type": "address"
        },
        {
          "internalType": "address",
          "name": "to",
          "type": "address"
        },
        {
          "internalType": "uint256",
          "name": "tokenId",
          "type": "uint256"
        },
        {
          "internalType": "bytes",
          "name": "_data",
          "type": "bytes"
        }
      ],
      "name": "safeTransferFrom",
      "outputs": [],
      "stateMutability": "nonpayable",
      "type": "function"
    },
    {
      "inputs": [
        {
          "internalType": "address",
          "name": "operator",
          "type": "address"
        },
        {
          "internalType": "bool",
          "name": "approved",
          "type": "bool"
        }
      ],
      "name": "setApprovalForAll",
      "outputs": [],
      "stateMutability": "nonpayable",
      "type": "function"
    },
    {
      "inputs": [
        {
          "internalType": "bytes4",
          "name": "interfaceId",
          "type": "bytes4"
        }
      ],
      "name": "supportsInterface",
      "outputs": [
        {
          "internalType": "bool",
          "name": "",
          "type": "bool"
        }
      ],
      "stateMutability": "view",
      "type": "function"
    },
    {
      "inputs": [],
      "name": "symbol",
      "outputs": [
        {
          "internalType": "string",
          "name": "",
          "type": "string"
        }
      ],
      "stateMutability": "view",
      "type": "function"
    },
    {
      "inputs": [
        {
          "internalType": "uint256",
          "name": "tokenId",
          "type": "uint256"
        }
      ],
      "name": "tokenURI",
      "outputs": [
        {
          "internalType": "string",
          "name": "",
          "type": "string"
        }
      ],
      "stateMutability": "view",
      "type": "function"
    },
    {
      "inputs": [
        {
          "internalType": "address",
          "name": "from",
          "type": "address"
        },
        {
          "internalType": "address",
          "name": "to",
          "type": "address"
        },
        {
          "internalType": "uint256",
          "name": "tokenId",
          "type": "uint256"
        }
      ],
      "name": "transferFrom",
      "outputs": [],
      "stateMutability": "nonpayable",
      "type": "function"
    }
  ],
  "bytecode": "0x608060405260405180610100016040528060d381526020016200487960d39139600890805190602001906200003692919062000919565b506040518060800160405280605681526020016200494c60569139600990805190602001906200006892919062000919565b506040518060e001604052806040518060400160405280600981526020017f46616e746173746963000000000000000000000000000000000000000000000081525081526020016040518060400160405280600481526020017f457069630000000000000000000000000000000000000000000000000000000081525081526020016040518060400160405280600881526020017f5465727269626c6500000000000000000000000000000000000000000000000081525081526020016040518060400160405280600581526020017f4372617a7900000000000000000000000000000000000000000000000000000081525081526020016040518060400160405280600481526020017f57696c640000000000000000000000000000000000000000000000000000000081525081526020016040518060400160405280600a81526020017f54657272696679696e670000000000000000000000000000000000000000000081525081526020016040518060400160405280600681526020017f53706f6f6b790000000000000000000000000000000000000000000000000000815250815250600a90600762000221929190620009aa565b506040518060e001604052806040518060400160405280600781526020017f43757063616b650000000000000000000000000000000000000000000000000081525081526020016040518060400160405280600581526020017f50697a7a6100000000000000000000000000000000000000000000000000000081525081526020016040518060400160405280600981526020017f4d696c6b7368616b65000000000000000000000000000000000000000000000081525081526020016040518060400160405280600581526020017f437572727900000000000000000000000000000000000000000000000000000081525081526020016040518060400160405280600781526020017f436869636b656e0000000000000000000000000000000000000000000000000081525081526020016040518060400160405280600881526020017f53616e647769636800000000000000000000000000000000000000000000000081525081526020016040518060400160405280600581526020017f53616c6164000000000000000000000000000000000000000000000000000000815250815250600b906007620003da929190620009aa565b506040518061010001604052806040518060400160405280600681526020017f4e617275746f000000000000000000000000000000000000000000000000000081525081526020016040518060400160405280600681526020017f536173756b65000000000000000000000000000000000000000000000000000081525081526020016040518060400160405280600681526020017f53616b757261000000000000000000000000000000000000000000000000000081525081526020016040518060400160405280600481526020017f476f6b750000000000000000000000000000000000000000000000000000000081525081526020016040518060400160405280600581526020017f476161726100000000000000000000000000000000000000000000000000000081525081526020016040518060400160405280600681526020017f4d696e61746f000000000000000000000000000000000000000000000000000081525081526020016040518060400160405280600781526020017f4b616b617368690000000000000000000000000000000000000000000000000081525081526020016040518060400160405280600681526020017f4d61646172610000000000000000000000000000000000000000000000000000815250815250600c906008620005cf92919062000a11565b506040518060c001604052806040518060400160405280600381526020017f726564000000000000000000000000000000000000000000000000000000000081525081526020016040518060400160405280600781526020017f233038433241380000000000000000000000000000000000000000000000000081525081526020016040518060400160405280600581526020017f626c61636b00000000000000000000000000000000000000000000000000000081525081526020016040518060400160405280600681526020017f79656c6c6f77000000000000000000000000000000000000000000000000000081525081526020016040518060400160405280600481526020017f626c75650000000000000000000000000000000000000000000000000000000081525081526020016040518060400160405280600581526020017f677265656e000000000000000000000000000000000000000000000000000000815250815250600d9060066200074d92919062000a78565b503480156200075b57600080fd5b506040518060400160405280600981526020017f5371756172654e465400000000000000000000000000000000000000000000008152506040518060400160405280600681526020017f53515541524500000000000000000000000000000000000000000000000000008152508160009080519060200190620007e092919062000919565b508060019080519060200190620007f992919062000919565b505050620008476040518060400160405280601e81526020017f54686973206973206d79204e465420636f6e74726163742e2057686f612100008152506200084d60201b6200122a1760201c565b62000c99565b620008ed8160405160240162000864919062000bad565b6040516020818303038152906040527f41304fac000000000000000000000000000000000000000000000000000000007bffffffffffffffffffffffffffffffffffffffffffffffffffffffff19166020820180517bffffffffffffffffffffffffffffffffffffffffffffffffffffffff8381831617835250505050620008f060201b60201c565b50565b60008151905060006a636f6e736f6c652e6c6f679050602083016000808483855afa5050505050565b828054620009279062000c23565b90600052602060002090601f0160209004810192826200094b576000855562000997565b82601f106200096657805160ff191683800117855562000997565b8280016001018555821562000997579182015b828111156200099657825182559160200191906001019062000979565b5b509050620009a6919062000adf565b5090565b828054828255906000526020600020908101928215620009fe579160200282015b82811115620009fd578251829080519060200190620009ec92919062000919565b5091602001919060010190620009cb565b5b50905062000a0d919062000afe565b5090565b82805482825590600052602060002090810192821562000a65579160200282015b8281111562000a6457825182908051906020019062000a5392919062000919565b509160200191906001019062000a32565b5b50905062000a74919062000afe565b5090565b82805482825590600052602060002090810192821562000acc579160200282015b8281111562000acb57825182908051906020019062000aba92919062000919565b509160200191906001019062000a99565b5b50905062000adb919062000afe565b5090565b5b8082111562000afa57600081600090555060010162000ae0565b5090565b5b8082111562000b22576000818162000b18919062000b26565b5060010162000aff565b5090565b50805462000b349062000c23565b6000825580601f1062000b48575062000b69565b601f01602090049060005260206000209081019062000b68919062000adf565b5b50565b600062000b798262000bd1565b62000b85818562000bdc565b935062000b9781856020860162000bed565b62000ba28162000c88565b840191505092915050565b6000602082019050818103600083015262000bc9818462000b6c565b905092915050565b600081519050919050565b600082825260208201905092915050565b60005b8381101562000c0d57808201518184015260208101905062000bf0565b8381111562000c1d576000848401525b50505050565b6000600282049050600182168062000c3c57607f821691505b6020821081141562000c535762000c5262000c59565b5b50919050565b7f4e487b7100000000000000000000000000000000000000000000000000000000600052602260045260246000fd5b6000601f19601f8301169050919050565b613bd08062000ca96000396000f3fe608060405234801561001057600080fd5b50600436106101165760003560e01c806370a08231116100a2578063b88d4fde11610071578063b88d4fde14610317578063c87b56dd14610333578063de9d132f14610363578063e8a5411e1461036d578063e985e9c51461039d57610116565b806370a082311461027d57806395d89b41146102ad578063a22cb465146102cb578063ad866a75146102e757610116565b806323b872dd116100e957806323b872dd146101b557806342842e0e146101d1578063514dc8c6146101ed57806362d3b2f81461021d5780636352211e1461024d57610116565b806301ffc9a71461011b57806306fdde031461014b578063081812fc14610169578063095ea7b314610199575b600080fd5b61013560048036038101906101309190612656565b6103cd565b6040516101429190612dbf565b60405180910390f35b6101536104af565b6040516101609190612dda565b60405180910390f35b610183600480360381019061017e91906126a8565b610541565b6040516101909190612d2f565b60405180910390f35b6101b360048036038101906101ae919061261a565b6105c6565b005b6101cf60048036038101906101ca9190612514565b6106de565b005b6101eb60048036038101906101e69190612514565b61073e565b005b610207600480360381019061020291906126a8565b61075e565b6040516102149190612dda565b60405180910390f35b610237600480360381019061023291906126a8565b61087c565b6040516102449190612dda565b60405180910390f35b610267600480360381019061026291906126a8565b61099a565b6040516102749190612d2f565b60405180910390f35b610297600480360381019061029291906124af565b610a4c565b6040516102a4919061303a565b60405180910390f35b6102b5610b04565b6040516102c29190612dda565b60405180910390f35b6102e560048036038101906102e091906125de565b610b96565b005b61030160048036038101906102fc91906126a8565b610bac565b60405161030e9190612dda565b60405180910390f35b610331600480360381019061032c9190612563565b610cca565b005b61034d600480360381019061034891906126a8565b610d2c565b60405161035a9190612dda565b60405180910390f35b61036b610e7e565b005b610387600480360381019061038291906126a8565b611078565b6040516103949190612dda565b60405180910390f35b6103b760048036038101906103b291906124d8565b611196565b6040516103c49190612dbf565b60405180910390f35b60007f80ac58cd000000000000000000000000000000000000000000000000000000007bffffffffffffffffffffffffffffffffffffffffffffffffffffffff1916827bffffffffffffffffffffffffffffffffffffffffffffffffffffffff1916148061049857507f5b5e139f000000000000000000000000000000000000000000000000000000007bffffffffffffffffffffffffffffffffffffffffffffffffffffffff1916827bffffffffffffffffffffffffffffffffffffffffffffffffffffffff1916145b806104a857506104a7826112c3565b5b9050919050565b6060600080546104be906132ce565b80601f01602080910402602001604051908101604052809291908181526020018280546104ea906132ce565b80156105375780601f1061050c57610100808354040283529160200191610537565b820191906000526020600020905b81548152906001019060200180831161051a57829003601f168201915b5050505050905090565b600061054c8261132d565b61058b576040517f08c379a000000000000000000000000000000000000000000000000000000000815260040161058290612fba565b60405180910390fd5b6004600083815260200190815260200160002060009054906101000a900473ffffffffffffffffffffffffffffffffffffffff169050919050565b60006105d18261099a565b90508073ffffffffffffffffffffffffffffffffffffffff168373ffffffffffffffffffffffffffffffffffffffff161415610642576040517f08c379a000000000000000000000000000000000000000000000000000000000815260040161063990612ffa565b60405180910390fd5b8073ffffffffffffffffffffffffffffffffffffffff16610661611399565b73ffffffffffffffffffffffffffffffffffffffff161480610690575061068f8161068a611399565b611196565b5b6106cf576040517f08c379a00000000000000000000000000000000000000000000000000000000081526004016106c690612efa565b60405180910390fd5b6106d983836113a1565b505050565b6106ef6106e9611399565b8261145a565b61072e576040517f08c379a00000000000000000000000000000000000000000000000000000000081526004016107259061301a565b60405180910390fd5b610739838383611538565b505050565b61075983838360405180602001604052806000815250610cca565b505050565b6060600061079261076e8461179f565b60405160200161077e9190612d0d565b60405160208183030381529060405261194c565b9050600d80549050816107a5919061337a565b9050600d81815481106107e1577f4e487b7100000000000000000000000000000000000000000000000000000000600052603260045260246000fd5b9060005260206000200180546107f6906132ce565b80601f0160208091040260200160405190810160405280929190818152602001828054610822906132ce565b801561086f5780601f106108445761010080835404028352916020019161086f565b820191906000526020600020905b81548152906001019060200180831161085257829003601f168201915b5050505050915050919050565b606060006108b061088c8461179f565b60405160200161089c9190612c62565b60405160208183030381529060405261194c565b9050600b80549050816108c3919061337a565b9050600b81815481106108ff577f4e487b7100000000000000000000000000000000000000000000000000000000600052603260045260246000fd5b906000526020600020018054610914906132ce565b80601f0160208091040260200160405190810160405280929190818152602001828054610940906132ce565b801561098d5780601f106109625761010080835404028352916020019161098d565b820191906000526020600020905b81548152906001019060200180831161097057829003601f168201915b5050505050915050919050565b6000806002600084815260200190815260200160002060009054906101000a900473ffffffffffffffffffffffffffffffffffffffff169050600073ffffffffffffffffffffffffffffffffffffffff168173ffffffffffffffffffffffffffffffffffffffff161415610a43576040517f08c379a0000000000000000000000000000000000000000000000000000000008152600401610a3a90612f3a565b60405180910390fd5b80915050919050565b60008073ffffffffffffffffffffffffffffffffffffffff168273ffffffffffffffffffffffffffffffffffffffff161415610abd576040517f08c379a0000000000000000000000000000000000000000000000000000000008152600401610ab490612f1a565b60405180910390fd5b600360008373ffffffffffffffffffffffffffffffffffffffff1673ffffffffffffffffffffffffffffffffffffffff168152602001908152602001600020549050919050565b606060018054610b13906132ce565b80601f0160208091040260200160405190810160405280929190818152602001828054610b3f906132ce565b8015610b8c5780601f10610b6157610100808354040283529160200191610b8c565b820191906000526020600020905b815481529060010190602001808311610b6f57829003601f168201915b5050505050905090565b610ba8610ba1611399565b838361197f565b5050565b60606000610be0610bbc8461179f565b604051602001610bcc9190612cc9565b60405160208183030381529060405261194c565b9050600a8054905081610bf3919061337a565b9050600a8181548110610c2f577f4e487b7100000000000000000000000000000000000000000000000000000000600052603260045260246000fd5b906000526020600020018054610c44906132ce565b80601f0160208091040260200160405190810160405280929190818152602001828054610c70906132ce565b8015610cbd5780601f10610c9257610100808354040283529160200191610cbd565b820191906000526020600020905b815481529060010190602001808311610ca057829003601f168201915b5050505050915050919050565b610cdb610cd5611399565b8361145a565b610d1a576040517f08c379a0000000000000000000000000000000000000000000000000000000008152600401610d119061301a565b60405180910390fd5b610d2684848484611aec565b50505050565b6060610d378261132d565b610d76576040517f08c379a0000000000000000000000000000000000000000000000000000000008152600401610d6d90612f9a565b60405180910390fd5b6000600660008481526020019081526020016000208054610d96906132ce565b80601f0160208091040260200160405190810160405280929190818152602001828054610dc2906132ce565b8015610e0f5780601f10610de457610100808354040283529160200191610e0f565b820191906000526020600020905b815481529060010190602001808311610df257829003601f168201915b505050505090506000610e20611b48565b9050600081511415610e36578192505050610e79565b600082511115610e6b578082604051602001610e53929190612ba2565b60405160208183030381529060405292505050610e79565b610e7484611b5f565b925050505b919050565b6000610e8a6007611c06565b90506000610e9782610bac565b90506000610ea48361087c565b90506000610eb184611078565b90506000838383604051602001610eca93929190612bc6565b60405160208183030381529060405290506000610ee68661075e565b90506000600882600985604051602001610f039493929190612bf7565b60405160208183030381529060405290506000610f4884610f2384611c14565b604051602001610f34929190612c84565b604051602081830303815290604052611c14565b9050600081604051602001610f5d9190612ceb565b6040516020818303038152906040529050610fac6040518060400160405280601381526020017f0a2d2d2d2d2d2d2d2d2d2d2d2d2d2d2d2d2d2d0000000000000000000000000081525061122a565b610fb58161122a565b610ff36040518060400160405280601581526020017f2d2d2d2d2d2d2d2d2d2d2d2d2d2d2d2d2d2d2d2d0a000000000000000000000081525061122a565b610ffd338a611dd2565b6110078982611df0565b6110116007611e64565b611034604051806060016040528060258152602001613b36602591398a33611e7a565b7febb98688741ffa4c7589bf325de30cf7becb63de567842e1ccdb6cb949fdc82c338a604051611065929190612d96565b60405180910390a1505050505050505050565b606060006110ac6110888461179f565b6040516020016110989190612c40565b60405160208183030381529060405261194c565b9050600c80549050816110bf919061337a565b9050600c81815481106110fb577f4e487b7100000000000000000000000000000000000000000000000000000000600052603260045260246000fd5b906000526020600020018054611110906132ce565b80601f016020809104026020016040519081016040528092919081815260200182805461113c906132ce565b80156111895780601f1061115e57610100808354040283529160200191611189565b820191906000526020600020905b81548152906001019060200180831161116c57829003601f168201915b5050505050915050919050565b6000600560008473ffffffffffffffffffffffffffffffffffffffff1673ffffffffffffffffffffffffffffffffffffffff16815260200190815260200160002060008373ffffffffffffffffffffffffffffffffffffffff1673ffffffffffffffffffffffffffffffffffffffff16815260200190815260200160002060009054906101000a900460ff16905092915050565b6112c08160405160240161123e9190612dda565b6040516020818303038152906040527f41304fac000000000000000000000000000000000000000000000000000000007bffffffffffffffffffffffffffffffffffffffffffffffffffffffff19166020820180517bffffffffffffffffffffffffffffffffffffffffffffffffffffffff8381831617835250505050611f19565b50565b60007f01ffc9a7000000000000000000000000000000000000000000000000000000007bffffffffffffffffffffffffffffffffffffffffffffffffffffffff1916827bffffffffffffffffffffffffffffffffffffffffffffffffffffffff1916149050919050565b60008073ffffffffffffffffffffffffffffffffffffffff166002600084815260200190815260200160002060009054906101000a900473ffffffffffffffffffffffffffffffffffffffff1673ffffffffffffffffffffffffffffffffffffffff1614159050919050565b600033905090565b816004600083815260200190815260200160002060006101000a81548173ffffffffffffffffffffffffffffffffffffffff021916908373ffffffffffffffffffffffffffffffffffffffff160217905550808273ffffffffffffffffffffffffffffffffffffffff166114148361099a565b73ffffffffffffffffffffffffffffffffffffffff167f8c5be1e5ebec7d5bd14f71427d1e84f3dd0314c0f7b2291e5b200ac8c7c3b92560405160405180910390a45050565b60006114658261132d565b6114a4576040517f08c379a000000000000000000000000000000000000000000000000000000000815260040161149b90612eda565b60405180910390fd5b60006114af8361099a565b90508073ffffffffffffffffffffffffffffffffffffffff168473ffffffffffffffffffffffffffffffffffffffff1614806114f157506114f08185611196565b5b8061152f57508373ffffffffffffffffffffffffffffffffffffffff1661151784610541565b73ffffffffffffffffffffffffffffffffffffffff16145b91505092915050565b8273ffffffffffffffffffffffffffffffffffffffff166115588261099a565b73ffffffffffffffffffffffffffffffffffffffff16146115ae576040517f08c379a00000000000000000000000000000000000000000000000000000000081526004016115a590612e5a565b60405180910390fd5b600073ffffffffffffffffffffffffffffffffffffffff168273ffffffffffffffffffffffffffffffffffffffff16141561161e576040517f08c379a000000000000000000000000000000000000000000000000000000000815260040161161590612e9a565b60405180910390fd5b611629838383611f42565b6116346000826113a1565b6001600360008573ffffffffffffffffffffffffffffffffffffffff1673ffffffffffffffffffffffffffffffffffffffff168152602001908152602001600020600082825461168491906131e4565b925050819055506001600360008473ffffffffffffffffffffffffffffffffffffffff1673ffffffffffffffffffffffffffffffffffffffff16815260200190815260200160002060008282546116db9190613103565b92505081905550816002600083815260200190815260200160002060006101000a81548173ffffffffffffffffffffffffffffffffffffffff021916908373ffffffffffffffffffffffffffffffffffffffff160217905550808273ffffffffffffffffffffffffffffffffffffffff168473ffffffffffffffffffffffffffffffffffffffff167fddf252ad1be2c89b69c2b068fc378daa952ba7f163c4a11628f55a4df523b3ef60405160405180910390a461179a838383611f47565b505050565b606060008214156117e7576040518060400160405280600181526020017f30000000000000000000000000000000000000000000000000000000000000008152509050611947565b600082905060005b6000821461181957808061180290613331565b915050600a826118129190613159565b91506117ef565b60008167ffffffffffffffff81111561185b577f4e487b7100000000000000000000000000000000000000000000000000000000600052604160045260246000fd5b6040519080825280601f01601f19166020018201604052801561188d5781602001600182028036833780820191505090505b5090505b60008514611940576001826118a691906131e4565b9150600a856118b5919061337a565b60306118c19190613103565b60f81b8183815181106118fd577f4e487b7100000000000000000000000000000000000000000000000000000000600052603260045260246000fd5b60200101907effffffffffffffffffffffffffffffffffffffffffffffffffffffffffffff1916908160001a905350600a856119399190613159565b9450611891565b8093505050505b919050565b60008160405160200161195f9190612b8b565b6040516020818303038152906040528051906020012060001c9050919050565b8173ffffffffffffffffffffffffffffffffffffffff168373ffffffffffffffffffffffffffffffffffffffff1614156119ee576040517f08c379a00000000000000000000000000000000000000000000000000000000081526004016119e590612eba565b60405180910390fd5b80600560008573ffffffffffffffffffffffffffffffffffffffff1673ffffffffffffffffffffffffffffffffffffffff16815260200190815260200160002060008473ffffffffffffffffffffffffffffffffffffffff1673ffffffffffffffffffffffffffffffffffffffff16815260200190815260200160002060006101000a81548160ff0219169083151502179055508173ffffffffffffffffffffffffffffffffffffffff168373ffffffffffffffffffffffffffffffffffffffff167f17307eab39ab6107e8899845ad3d59bd9653f200f220920489ca2b5937696c3183604051611adf9190612dbf565b60405180910390a3505050565b611af7848484611538565b611b0384848484611f4c565b611b42576040517f08c379a0000000000000000000000000000000000000000000000000000000008152600401611b3990612e3a565b60405180910390fd5b50505050565b606060405180602001604052806000815250905090565b6060611b6a8261132d565b611ba9576040517f08c379a0000000000000000000000000000000000000000000000000000000008152600401611ba090612fda565b60405180910390fd5b6000611bb3611b48565b90506000815111611bd35760405180602001604052806000815250611bfe565b80611bdd8461179f565b604051602001611bee929190612ba2565b6040516020818303038152906040525b915050919050565b600081600001549050919050565b60606000825190506000811415611c3d5760405180602001604052806000815250915050611dcd565b60006003600283611c4e9190613103565b611c589190613159565b6004611c64919061318a565b90506000602082611c759190613103565b67ffffffffffffffff811115611cb4577f4e487b7100000000000000000000000000000000000000000000000000000000600052604160045260246000fd5b6040519080825280601f01601f191660200182016040528015611ce65781602001600182028036833780820191505090505b5090506000604051806060016040528060408152602001613b5b604091399050600181016020830160005b86811015611d8a5760038101905062ffffff818a015116603f8160121c168401518060081b905060ff603f83600c1c1686015116810190508060081b905060ff603f8360061c1686015116810190508060081b905060ff603f831686015116810190508060e01b90508084526004840193505050611d11565b506003860660018114611da45760028114611db457611dbf565b613d3d60f01b6002830352611dbf565b603d60f81b60018303525b508484525050819450505050505b919050565b611dec8282604051806020016040528060008152506120e3565b5050565b611df98261132d565b611e38576040517f08c379a0000000000000000000000000000000000000000000000000000000008152600401611e2f90612f5a565b60405180910390fd5b80600660008481526020019081526020016000209080519060200190611e5f92919061233b565b505050565b6001816000016000828254019250508190555050565b611f14838383604051602401611e9293929190612dfc565b6040516020818303038152906040527fe3849f79000000000000000000000000000000000000000000000000000000007bffffffffffffffffffffffffffffffffffffffffffffffffffffffff19166020820180517bffffffffffffffffffffffffffffffffffffffffffffffffffffffff8381831617835250505050611f19565b505050565b60008151905060006a636f6e736f6c652e6c6f679050602083016000808483855afa5050505050565b505050565b505050565b6000611f6d8473ffffffffffffffffffffffffffffffffffffffff1661213e565b156120d6578373ffffffffffffffffffffffffffffffffffffffff1663150b7a02611f96611399565b8786866040518563ffffffff1660e01b8152600401611fb89493929190612d4a565b602060405180830381600087803b158015611fd257600080fd5b505af192505050801561200357506040513d601f19601f82011682018060405250810190612000919061267f565b60015b612086573d8060008114612033576040519150601f19603f3d011682016040523d82523d6000602084013e612038565b606091505b5060008151141561207e576040517f08c379a000000000000000000000000000000000000000000000000000000000815260040161207590612e3a565b60405180910390fd5b805181602001fd5b63150b7a0260e01b7bffffffffffffffffffffffffffffffffffffffffffffffffffffffff1916817bffffffffffffffffffffffffffffffffffffffffffffffffffffffff1916149150506120db565b600190505b949350505050565b6120ed8383612161565b6120fa6000848484611f4c565b612139576040517f08c379a000000000000000000000000000000000000000000000000000000000815260040161213090612e3a565b60405180910390fd5b505050565b6000808273ffffffffffffffffffffffffffffffffffffffff163b119050919050565b600073ffffffffffffffffffffffffffffffffffffffff168273ffffffffffffffffffffffffffffffffffffffff1614156121d1576040517f08c379a00000000000000000000000000000000000000000000000000000000081526004016121c890612f7a565b60405180910390fd5b6121da8161132d565b1561221a576040517f08c379a000000000000000000000000000000000000000000000000000000000815260040161221190612e7a565b60405180910390fd5b61222660008383611f42565b6001600360008473ffffffffffffffffffffffffffffffffffffffff1673ffffffffffffffffffffffffffffffffffffffff16815260200190815260200160002060008282546122769190613103565b92505081905550816002600083815260200190815260200160002060006101000a81548173ffffffffffffffffffffffffffffffffffffffff021916908373ffffffffffffffffffffffffffffffffffffffff160217905550808273ffffffffffffffffffffffffffffffffffffffff16600073ffffffffffffffffffffffffffffffffffffffff167fddf252ad1be2c89b69c2b068fc378daa952ba7f163c4a11628f55a4df523b3ef60405160405180910390a461233760008383611f47565b5050565b828054612347906132ce565b90600052602060002090601f01602090048101928261236957600085556123b0565b82601f1061238257805160ff19168380011785556123b0565b828001600101855582156123b0579182015b828111156123af578251825591602001919060010190612394565b5b5090506123bd91906123c1565b5090565b5b808211156123da5760008160009055506001016123c2565b5090565b60006123f16123ec8461307a565b613055565b90508281526020810184848401111561240957600080fd5b61241484828561328c565b509392505050565b60008135905061242b81613ad9565b92915050565b60008135905061244081613af0565b92915050565b60008135905061245581613b07565b92915050565b60008151905061246a81613b07565b92915050565b600082601f83011261248157600080fd5b81356124918482602086016123de565b91505092915050565b6000813590506124a981613b1e565b92915050565b6000602082840312156124c157600080fd5b60006124cf8482850161241c565b91505092915050565b600080604083850312156124eb57600080fd5b60006124f98582860161241c565b925050602061250a8582860161241c565b9150509250929050565b60008060006060848603121561252957600080fd5b60006125378682870161241c565b93505060206125488682870161241c565b92505060406125598682870161249a565b9150509250925092565b6000806000806080858703121561257957600080fd5b60006125878782880161241c565b94505060206125988782880161241c565b93505060406125a98782880161249a565b925050606085013567ffffffffffffffff8111156125c657600080fd5b6125d287828801612470565b91505092959194509250565b600080604083850312156125f157600080fd5b60006125ff8582860161241c565b925050602061261085828601612431565b9150509250929050565b6000806040838503121561262d57600080fd5b600061263b8582860161241c565b925050602061264c8582860161249a565b9150509250929050565b60006020828403121561266857600080fd5b600061267684828501612446565b91505092915050565b60006020828403121561269157600080fd5b600061269f8482850161245b565b91505092915050565b6000602082840312156126ba57600080fd5b60006126c88482850161249a565b91505092915050565b6126da81613218565b82525050565b6126e98161322a565b82525050565b60006126fa826130c0565b61270481856130d6565b935061271481856020860161329b565b61271d81613467565b840191505092915050565b6000612733826130cb565b61273d81856130e7565b935061274d81856020860161329b565b61275681613467565b840191505092915050565b600061276c826130cb565b61277681856130f8565b935061278681856020860161329b565b80840191505092915050565b6000815461279f816132ce565b6127a981866130f8565b945060018216600081146127c457600181146127d557612808565b60ff19831686528186019350612808565b6127de856130ab565b60005b83811015612800578154818901526001820191506020810190506127e1565b838801955050505b50505092915050565b600061281e6032836130e7565b915061282982613478565b604082019050919050565b60006128416025836130e7565b915061284c826134c7565b604082019050919050565b6000612864601c836130e7565b915061286f82613516565b602082019050919050565b6000612887600a836130f8565b91506128928261353f565b600a82019050919050565b60006128aa6024836130e7565b91506128b582613568565b604082019050919050565b60006128cd6019836130e7565b91506128d8826135b7565b602082019050919050565b60006128f0600b836130f8565b91506128fb826135e0565b600b82019050919050565b6000612913602c836130e7565b915061291e82613609565b604082019050919050565b6000612936600d836130f8565b915061294182613658565b600d82019050919050565b60006129596038836130e7565b915061296482613681565b604082019050919050565b600061297c602a836130e7565b9150612987826136d0565b604082019050919050565b600061299f6029836130e7565b91506129aa8261371f565b604082019050919050565b60006129c2602e836130e7565b91506129cd8261376e565b604082019050919050565b60006129e56002836130f8565b91506129f0826137bd565b600282019050919050565b6000612a086020836130e7565b9150612a13826137e6565b602082019050919050565b6000612a2b6031836130e7565b9150612a368261380f565b604082019050919050565b6000612a4e602c836130e7565b9150612a598261385e565b604082019050919050565b6000612a71602f836130e7565b9150612a7c826138ad565b604082019050919050565b6000612a94600a836130f8565b9150612a9f826138fc565b600a82019050919050565b6000612ab76021836130e7565b9150612ac282613925565b604082019050919050565b6000612ada600a836130f8565b9150612ae582613974565b600a82019050919050565b6000612afd601d836130f8565b9150612b088261399d565b601d82019050919050565b6000612b206031836130e7565b9150612b2b826139c6565b604082019050919050565b6000612b436005836130f8565b9150612b4e82613a15565b600582019050919050565b6000612b666062836130f8565b9150612b7182613a3e565b606282019050919050565b612b8581613282565b82525050565b6000612b978284612761565b915081905092915050565b6000612bae8285612761565b9150612bba8284612761565b91508190509392505050565b6000612bd28286612761565b9150612bde8285612761565b9150612bea8284612761565b9150819050949350505050565b6000612c038287612792565b9150612c0f8286612761565b9150612c1b8285612792565b9150612c278284612761565b9150612c3282612929565b915081905095945050505050565b6000612c4b8261287a565b9150612c578284612761565b915081905092915050565b6000612c6d826128e3565b9150612c798284612761565b915081905092915050565b6000612c8f82612a87565b9150612c9b8285612761565b9150612ca682612b59565b9150612cb28284612761565b9150612cbd826129d8565b91508190509392505050565b6000612cd482612acd565b9150612ce08284612761565b915081905092915050565b6000612cf682612af0565b9150612d028284612761565b915081905092915050565b6000612d1882612b36565b9150612d248284612761565b915081905092915050565b6000602082019050612d4460008301846126d1565b92915050565b6000608082019050612d5f60008301876126d1565b612d6c60208301866126d1565b612d796040830185612b7c565b8181036060830152612d8b81846126ef565b905095945050505050565b6000604082019050612dab60008301856126d1565b612db86020830184612b7c565b9392505050565b6000602082019050612dd460008301846126e0565b92915050565b60006020820190508181036000830152612df48184612728565b905092915050565b60006060820190508181036000830152612e168186612728565b9050612e256020830185612b7c565b612e3260408301846126d1565b949350505050565b60006020820190508181036000830152612e5381612811565b9050919050565b60006020820190508181036000830152612e7381612834565b9050919050565b60006020820190508181036000830152612e9381612857565b9050919050565b60006020820190508181036000830152612eb38161289d565b9050919050565b60006020820190508181036000830152612ed3816128c0565b9050919050565b60006020820190508181036000830152612ef381612906565b9050919050565b60006020820190508181036000830152612f138161294c565b9050919050565b60006020820190508181036000830152612f338161296f565b9050919050565b60006020820190508181036000830152612f5381612992565b9050919050565b60006020820190508181036000830152612f73816129b5565b9050919050565b60006020820190508181036000830152612f93816129fb565b9050919050565b60006020820190508181036000830152612fb381612a1e565b9050919050565b60006020820190508181036000830152612fd381612a41565b9050919050565b60006020820190508181036000830152612ff381612a64565b9050919050565b6000602082019050818103600083015261301381612aaa565b9050919050565b6000602082019050818103600083015261303381612b13565b9050919050565b600060208201905061304f6000830184612b7c565b92915050565b600061305f613070565b905061306b8282613300565b919050565b6000604051905090565b600067ffffffffffffffff82111561309557613094613438565b5b61309e82613467565b9050602081019050919050565b60008190508160005260206000209050919050565b600081519050919050565b600081519050919050565b600082825260208201905092915050565b600082825260208201905092915050565b600081905092915050565b600061310e82613282565b915061311983613282565b9250827fffffffffffffffffffffffffffffffffffffffffffffffffffffffffffffffff0382111561314e5761314d6133ab565b5b828201905092915050565b600061316482613282565b915061316f83613282565b92508261317f5761317e6133da565b5b828204905092915050565b600061319582613282565b91506131a083613282565b9250817fffffffffffffffffffffffffffffffffffffffffffffffffffffffffffffffff04831182151516156131d9576131d86133ab565b5b828202905092915050565b60006131ef82613282565b91506131fa83613282565b92508282101561320d5761320c6133ab565b5b828203905092915050565b600061322382613262565b9050919050565b60008115159050919050565b60007fffffffff0000000000000000000000000000000000000000000000000000000082169050919050565b600073ffffffffffffffffffffffffffffffffffffffff82169050919050565b6000819050919050565b82818337600083830152505050565b60005b838110156132b957808201518184015260208101905061329e565b838111156132c8576000848401525b50505050565b600060028204905060018216806132e657607f821691505b602082108114156132fa576132f9613409565b5b50919050565b61330982613467565b810181811067ffffffffffffffff8211171561332857613327613438565b5b80604052505050565b600061333c82613282565b91507fffffffffffffffffffffffffffffffffffffffffffffffffffffffffffffffff82141561336f5761336e6133ab565b5b600182019050919050565b600061338582613282565b915061339083613282565b9250826133a05761339f6133da565b5b828206905092915050565b7f4e487b7100000000000000000000000000000000000000000000000000000000600052601160045260246000fd5b7f4e487b7100000000000000000000000000000000000000000000000000000000600052601260045260246000fd5b7f4e487b7100000000000000000000000000000000000000000000000000000000600052602260045260246000fd5b7f4e487b7100000000000000000000000000000000000000000000000000000000600052604160045260246000fd5b6000601f19601f8301169050919050565b7f4552433732313a207472616e7366657220746f206e6f6e20455243373231526560008201527f63656976657220696d706c656d656e7465720000000000000000000000000000602082015250565b7f4552433732313a207472616e736665722066726f6d20696e636f72726563742060008201527f6f776e6572000000000000000000000000000000000000000000000000000000602082015250565b7f4552433732313a20746f6b656e20616c7265616479206d696e74656400000000600082015250565b7f54484952445f574f524400000000000000000000000000000000000000000000600082015250565b7f4552433732313a207472616e7366657220746f20746865207a65726f2061646460008201527f7265737300000000000000000000000000000000000000000000000000000000602082015250565b7f4552433732313a20617070726f766520746f2063616c6c657200000000000000600082015250565b7f5345434f4e445f574f5244000000000000000000000000000000000000000000600082015250565b7f4552433732313a206f70657261746f7220717565727920666f72206e6f6e657860008201527f697374656e7420746f6b656e0000000000000000000000000000000000000000602082015250565b7f3c2f746578743e3c2f7376673e00000000000000000000000000000000000000600082015250565b7f4552433732313a20617070726f76652063616c6c6572206973206e6f74206f7760008201527f6e6572206e6f7220617070726f76656420666f7220616c6c0000000000000000602082015250565b7f4552433732313a2062616c616e636520717565727920666f7220746865207a6560008201527f726f206164647265737300000000000000000000000000000000000000000000602082015250565b7f4552433732313a206f776e657220717565727920666f72206e6f6e657869737460008201527f656e7420746f6b656e0000000000000000000000000000000000000000000000602082015250565b7f45524337323155524953746f726167653a2055524920736574206f66206e6f6e60008201527f6578697374656e7420746f6b656e000000000000000000000000000000000000602082015250565b7f227d000000000000000000000000000000000000000000000000000000000000600082015250565b7f4552433732313a206d696e7420746f20746865207a65726f2061646472657373600082015250565b7f45524337323155524953746f726167653a2055524920717565727920666f722060008201527f6e6f6e6578697374656e7420746f6b656e000000000000000000000000000000602082015250565b7f4552433732313a20617070726f76656420717565727920666f72206e6f6e657860008201527f697374656e7420746f6b656e0000000000000000000000000000000000000000602082015250565b7f4552433732314d657461646174613a2055524920717565727920666f72206e6f60008201527f6e6578697374656e7420746f6b656e0000000000000000000000000000000000602082015250565b7f7b226e616d65223a202200000000000000000000000000000000000000000000600082015250565b7f4552433732313a20617070726f76616c20746f2063757272656e74206f776e6560008201527f7200000000000000000000000000000000000000000000000000000000000000602082015250565b7f46495253545f574f524400000000000000000000000000000000000000000000600082015250565b7f646174613a6170706c69636174696f6e2f6a736f6e3b6261736536342c000000600082015250565b7f4552433732313a207472616e736665722063616c6c6572206973206e6f74206f60008201527f776e6572206e6f7220617070726f766564000000000000000000000000000000602082015250565b7f434f4c4f52000000000000000000000000000000000000000000000000000000600082015250565b7f222c20226465736372697074696f6e223a20224120686967686c79206163636c60008201527f61696d656420636f6c6c656374696f6e206f6620737175617265732e222c202260208201527f696d616765223a22646174613a696d6167652f7376672b786d6c3b626173653660408201527f342c000000000000000000000000000000000000000000000000000000000000606082015250565b613ae281613218565b8114613aed57600080fd5b50565b613af98161322a565b8114613b0457600080fd5b50565b613b1081613236565b8114613b1b57600080fd5b50565b613b2781613282565b8114613b3257600080fd5b5056fe416e204e465420772f20494420257320686173206265656e206d696e74656420746f2025734142434445464748494a4b4c4d4e4f505152535455565758595a6162636465666768696a6b6c6d6e6f707172737475767778797a303132333435363738392b2fa2646970667358221220f66db9340044c855e68343327a886864a160243d591818fa7cd112099c18687564736f6c634300080100333c73766720786d6c6e733d27687474703a2f2f7777772e77332e6f72672f323030302f73766727207072657365727665417370656374526174696f3d27784d696e594d696e206d656574272076696577426f783d273020302033353020333530273e3c7374796c653e2e62617365207b2066696c6c3a2077686974653b20666f6e742d66616d696c793a2073657269663b20666f6e742d73697a653a20323470783b207d3c2f7374796c653e3c726563742077696474683d273130302527206865696768743d2731303025272066696c6c3d27272f3e3c7465787420783d273530252720793d273530252720636c6173733d27626173652720646f6d696e616e742d626173656c696e653d276d6964646c652720746578742d616e63686f723d276d6964646c65273e",
  "linkReferences": {},
  "deployedLinkReferences": {}
}